{
  "contractName": "BoxIncomplete",
  "abi": [
    {
      "inputs": [
        {
          "internalType": "address",
          "name": "_transporter",
          "type": "address"
        },
        {
          "internalType": "address",
          "name": "_receiver",
          "type": "address"
        },
        {
          "internalType": "contract PenaltyFunction",
          "name": "_pf",
          "type": "address"
        }
      ],
      "payable": false,
      "stateMutability": "nonpayable",
      "type": "constructor"
    },
    {
      "anonymous": false,
      "inputs": [],
      "name": "ready",
      "type": "event"
    },
    {
      "anonymous": false,
      "inputs": [
        {
          "indexed": false,
          "internalType": "uint256",
          "name": "amount",
          "type": "uint256"
        }
      ],
      "name": "received",
      "type": "event"
    },
    {
      "anonymous": false,
      "inputs": [
        {
          "indexed": false,
          "internalType": "uint256",
          "name": "penalty",
          "type": "uint256"
        }
      ],
      "name": "refused",
      "type": "event"
    },
    {
      "anonymous": false,
      "inputs": [],
      "name": "shipping",
      "type": "event"
    },
    {
      "constant": true,
      "inputs": [],
      "name": "bump_threshold",
      "outputs": [
        {
          "internalType": "uint256",
          "name": "",
          "type": "uint256"
        }
      ],
      "payable": false,
      "stateMutability": "view",
      "type": "function"
    },
    {
      "constant": true,
      "inputs": [],
      "name": "minimal_price",
      "outputs": [
        {
          "internalType": "uint256",
          "name": "",
          "type": "uint256"
        }
      ],
      "payable": false,
      "stateMutability": "view",
      "type": "function"
    },
    {
      "constant": true,
      "inputs": [],
      "name": "penalty_function",
      "outputs": [
        {
          "internalType": "contract PenaltyFunction",
          "name": "",
          "type": "address"
        }
      ],
      "payable": false,
      "stateMutability": "view",
      "type": "function"
    },
    {
      "constant": true,
      "inputs": [],
      "name": "producer",
      "outputs": [
        {
          "internalType": "address",
          "name": "",
          "type": "address"
        }
      ],
      "payable": false,
      "stateMutability": "view",
      "type": "function"
    },
    {
      "constant": true,
      "inputs": [],
      "name": "producer_price",
      "outputs": [
        {
          "internalType": "uint256",
          "name": "",
          "type": "uint256"
        }
      ],
      "payable": false,
      "stateMutability": "view",
      "type": "function"
    },
    {
      "constant": true,
      "inputs": [],
      "name": "receiver",
      "outputs": [
        {
          "internalType": "address",
          "name": "",
          "type": "address"
        }
      ],
      "payable": false,
      "stateMutability": "view",
      "type": "function"
    },
    {
      "constant": true,
      "inputs": [],
      "name": "state",
      "outputs": [
        {
          "internalType": "enum BoxIncomplete.State",
          "name": "",
          "type": "uint8"
        }
      ],
      "payable": false,
      "stateMutability": "view",
      "type": "function"
    },
    {
      "constant": true,
      "inputs": [],
      "name": "temperature_threshold",
      "outputs": [
        {
          "internalType": "uint256",
          "name": "",
          "type": "uint256"
        }
      ],
      "payable": false,
      "stateMutability": "view",
      "type": "function"
    },
    {
      "constant": true,
      "inputs": [],
      "name": "transporter",
      "outputs": [
        {
          "internalType": "address",
          "name": "",
          "type": "address"
        }
      ],
      "payable": false,
      "stateMutability": "view",
      "type": "function"
    },
    {
      "constant": true,
      "inputs": [],
      "name": "transporter_price",
      "outputs": [
        {
          "internalType": "uint256",
          "name": "",
          "type": "uint256"
        }
      ],
      "payable": false,
      "stateMutability": "view",
      "type": "function"
    },
    {
      "constant": false,
      "inputs": [],
      "name": "ship",
      "outputs": [],
      "payable": true,
      "stateMutability": "payable",
      "type": "function"
    },
    {
      "constant": false,
      "inputs": [],
      "name": "complete",
      "outputs": [],
      "payable": true,
      "stateMutability": "payable",
      "type": "function"
    },
    {
      "constant": false,
      "inputs": [
        {
          "internalType": "uint256[]",
          "name": "_temp",
          "type": "uint256[]"
        },
        {
          "internalType": "uint256[]",
          "name": "_bumps",
          "type": "uint256[]"
        }
      ],
      "name": "push_data",
      "outputs": [],
      "payable": false,
      "stateMutability": "nonpayable",
      "type": "function"
    }
  ],
  "bytecode": "0x608060405266b1a2bc2ec5000060055567010a741a4627800060065566470de4df82000060075534801561003257600080fd5b506040516111d13803806111d18339818101604052606081101561005557600080fd5b8101908080519060200190929190805190602001909291908051906020019092919050505033600960006101000a81548173ffffffffffffffffffffffffffffffffffffffff021916908373ffffffffffffffffffffffffffffffffffffffff16021790555082600a60006101000a81548173ffffffffffffffffffffffffffffffffffffffff021916908373ffffffffffffffffffffffffffffffffffffffff16021790555081600b60006101000a81548173ffffffffffffffffffffffffffffffffffffffff021916908373ffffffffffffffffffffffffffffffffffffffff16021790555060008060006101000a81548160ff0219169083600381111561015b57fe5b0217905550602d60038190555061138860048190555080600860006101000a81548173ffffffffffffffffffffffffffffffffffffffff021916908373ffffffffffffffffffffffffffffffffffffffff1602179055507f6defbf80a30025d596790a4baf4e6298941cebee48baa972efb21b3fd63416ea60405160405180910390a1505050610fe1806101f06000396000f3fe6080604052600436106100c25760003560e01c8063a5d49e1e1161007f578063e42b021211610059578063e42b021214610370578063e5ad4345146103c7578063f7260d3e1461041e578063f85a476714610475576100c2565b8063a5d49e1e14610302578063b6bef7b31461032d578063c19d93fb14610337576100c2565b806302bdf01a146100c757806307df659d146100f2578063376126721461011d57806348c9c58314610174578063522e11771461019f57806392303151146101a9575b600080fd5b3480156100d357600080fd5b506100dc6104a0565b6040518082815260200191505060405180910390f35b3480156100fe57600080fd5b506101076104a6565b6040518082815260200191505060405180910390f35b34801561012957600080fd5b506101326104ac565b604051808273ffffffffffffffffffffffffffffffffffffffff1673ffffffffffffffffffffffffffffffffffffffff16815260200191505060405180910390f35b34801561018057600080fd5b506101896104d2565b6040518082815260200191505060405180910390f35b6101a76104d8565b005b3480156101b557600080fd5b50610300600480360360408110156101cc57600080fd5b81019080803590602001906401000000008111156101e957600080fd5b8201836020820111156101fb57600080fd5b8035906020019184602083028401116401000000008311171561021d57600080fd5b919080806020026020016040519081016040528093929190818152602001838360200280828437600081840152601f19601f8201169050808301925050505050505091929192908035906020019064010000000081111561027d57600080fd5b82018360208201111561028f57600080fd5b803590602001918460208302840111640100000000831117156102b157600080fd5b919080806020026020016040519081016040528093929190818152602001838360200280828437600081840152601f19601f8201169050808301925050505050505091929192905050506109d2565b005b34801561030e57600080fd5b50610317610b96565b6040518082815260200191505060405180910390f35b610335610b9c565b005b34801561034357600080fd5b5061034c610eb2565b6040518082600381111561035c57fe5b60ff16815260200191505060405180910390f35b34801561037c57600080fd5b50610385610ec4565b604051808273ffffffffffffffffffffffffffffffffffffffff1673ffffffffffffffffffffffffffffffffffffffff16815260200191505060405180910390f35b3480156103d357600080fd5b506103dc610eea565b604051808273ffffffffffffffffffffffffffffffffffffffff1673ffffffffffffffffffffffffffffffffffffffff16815260200191505060405180910390f35b34801561042a57600080fd5b50610433610f10565b604051808273ffffffffffffffffffffffffffffffffffffffff1673ffffffffffffffffffffffffffffffffffffffff16815260200191505060405180910390f35b34801561048157600080fd5b5061048a610f36565b6040518082815260200191505060405180910390f35b60065481565b60035481565b600960009054906101000a900473ffffffffffffffffffffffffffffffffffffffff1681565b60055481565b600b60009054906101000a900473ffffffffffffffffffffffffffffffffffffffff168073ffffffffffffffffffffffffffffffffffffffff163373ffffffffffffffffffffffffffffffffffffffff161461059c576040517f08c379a000000000000000000000000000000000000000000000000000000000815260040180806020018281038252601f8152602001807f4f7065726174696f6e206e6f7420616c6c6f7765642062792063616c6c65720081525060200191505060405180910390fd5b6000349050600160038111156105ae57fe5b6000809054906101000a900460ff1660038111156105c857fe5b1461063b576040517f08c379a000000000000000000000000000000000000000000000000000000000815260040180806020018281038252601c8152602001807f4572726f722c20696e76616c696420696e697469616c2073746174650000000081525060200191505060405180910390fd5b6006548114610695576040517f08c379a000000000000000000000000000000000000000000000000000000000815260040180806020018281038252602a815260200180610f3d602a913960400191505060405180910390fd5b6000600860009054906101000a900473ffffffffffffffffffffffffffffffffffffffff1673ffffffffffffffffffffffffffffffffffffffff166334087e4c600160026003546004546040518563ffffffff1660e01b8152600401808060200180602001858152602001848152602001838103835287818154815260200191508054801561074357602002820191906000526020600020905b81548152602001906001019080831161072f575b5050838103825286818154815260200191508054801561078257602002820191906000526020600020905b81548152602001906001019080831161076e575b5050965050505050505060206040518083038186803b1580156107a457600080fd5b505afa1580156107b8573d6000803e3d6000fd5b505050506040513d60208110156107ce57600080fd5b810190808051906020019092919050505090508060065410806107f657506007548160065403105b1561086e5760036000806101000a81548160ff0219169083600381111561081957fe5b02179055507f6658fbc28e3ef35cd9368a07f94df469b3cc7f2f833966f16b400fe5c3219001816040518082815260200191505060405180910390a13373ffffffffffffffffffffffffffffffffffffffff16ff5b6000816006540390506000600a60009054906101000a900473ffffffffffffffffffffffffffffffffffffffff1673ffffffffffffffffffffffffffffffffffffffff168260405180600001905060006040518083038185875af1925050503d80600081146108f9576040519150601f19603f3d011682016040523d82523d6000602084013e6108fe565b606091505b50509050600115158115151461095f576040517f08c379a0000000000000000000000000000000000000000000000000000000008152600401808060200182810382526022815260200180610f8b6022913960400191505060405180910390fd5b60026000806101000a81548160ff0219169083600381111561097d57fe5b02179055507fe66f0a779f42a53dbb677b5713ab20003216db33f14e5e97ae193ea7c04432c0826040518082815260200191505060405180910390a13373ffffffffffffffffffffffffffffffffffffffff16ff5b600a60009054906101000a900473ffffffffffffffffffffffffffffffffffffffff168073ffffffffffffffffffffffffffffffffffffffff163373ffffffffffffffffffffffffffffffffffffffff1614610a96576040517f08c379a000000000000000000000000000000000000000000000000000000000815260040180806020018281038252601f8152602001807f4f7065726174696f6e206e6f7420616c6c6f7765642062792063616c6c65720081525060200191505060405180910390fd5b8151835114610af0576040517f08c379a0000000000000000000000000000000000000000000000000000000008152600401808060200182810382526024815260200180610f676024913960400191505060405180910390fd5b60008351905060008090505b81811015610b8f576001858281518110610b1257fe5b602002602001015190806001815401808255809150509060018203906000526020600020016000909192909190915055506002848281518110610b5157fe5b602002602001015190806001815401808255809150509060018203906000526020600020016000909192909190915055508080600101915050610afc565b5050505050565b60075481565b600a60009054906101000a900473ffffffffffffffffffffffffffffffffffffffff168073ffffffffffffffffffffffffffffffffffffffff163373ffffffffffffffffffffffffffffffffffffffff1614610c60576040517f08c379a000000000000000000000000000000000000000000000000000000000815260040180806020018281038252601f8152602001807f4f7065726174696f6e206e6f7420616c6c6f7765642062792063616c6c65720081525060200191505060405180910390fd5b600034905060006003811115610c7257fe5b6000809054906101000a900460ff166003811115610c8c57fe5b14610cff576040517f08c379a000000000000000000000000000000000000000000000000000000000815260040180806020018281038252601c8152602001807f4572726f722c20696e76616c696420696e697469616c2073746174650000000081525060200191505060405180910390fd5b6005548114610d59576040517f08c379a000000000000000000000000000000000000000000000000000000000815260040180806020018281038252602a815260200180610f3d602a913960400191505060405180910390fd5b6000600960009054906101000a900473ffffffffffffffffffffffffffffffffffffffff1673ffffffffffffffffffffffffffffffffffffffff168260405180600001905060006040518083038185875af1925050503d8060008114610ddb576040519150601f19603f3d011682016040523d82523d6000602084013e610de0565b606091505b505090506001151581151514610e5e576040517f08c379a000000000000000000000000000000000000000000000000000000000815260040180806020018281038252601f8152602001807f4572726f72207768696c6520706179696e67207468652070726f64756365720081525060200191505060405180910390fd5b60016000806101000a81548160ff02191690836003811115610e7c57fe5b02179055507fbd2f6a94afefc3592085a0b6a23ad0697db0c57996979e5bbdb4d2f805cc25c260405160405180910390a1505050565b6000809054906101000a900460ff1681565b600a60009054906101000a900473ffffffffffffffffffffffffffffffffffffffff1681565b600860009054906101000a900473ffffffffffffffffffffffffffffffffffffffff1681565b600b60009054906101000a900473ffffffffffffffffffffffffffffffffffffffff1681565b6004548156fe4572726f722c2066756e6473206e6f74206d617463682074686520657870656374656420616d6f756e74496e707574206172726179732073686f756c6420686176652073616d65206c656e6774684572726f72207768696c6520706179696e6720746865207472616e73706f72746572a265627a7a7231582067ccef9bf57e6d89af3bb32b544472b07b5783f8da68c1a6201905f45a6f06cb64736f6c63430005100032",
  "source": "pragma solidity 0.5.16;\n\nimport './PenaltyFunction.sol';\n\n/**\n @notice This contract describes the status of a box of eggs. \n It tracks a series of data sensed during its shipment of the box.\n The box has a state that can be modified by different callers.\n If the sensed data are bad, then a PenaltyFunction contracts computes a penalty value and it will be applied to the box.\n A reference to a PenaltyFunction contract is given as constructor argument. \n*/\ncontract BoxIncomplete {\n\n    // Events\n    event ready();\n    event shipping();\n    event received(uint amount); // The actual payed amount (expected - penalty)\n    event refused(uint penalty); // The penalty that caused the rejection of the box\n\n    // Box state\n    enum State {READY, SHIPPING, RECEIVED, REFUSED}\n\n    State public state;\n\n    // Measurement samples    \n    uint[] private samples_temperature;\n    uint[] private samples_bump;\n\n    // Penalty data\n    uint public temperature_threshold;\n    uint public bump_threshold;\n\n    uint public producer_price = 50000000000000000; // 0.05 ether\n    uint public transporter_price = 75000000000000000; // 0.075 ether\n    uint public minimal_price = 20000000000000000; // 0.02 ether, minimal acceptable price for the receiver\n\n    // Function computing the penalty\n    PenaltyFunction public penalty_function;\n\n    // Partners\n    address public producer;\n    address public transporter;\n    address public receiver;\n\n    modifier is_allowed(address expected) {\n        require(msg.sender == expected, \"Operation not allowed by caller\");\n        _;\n    }\n\n    /// @notice Constructor. Stores the addresses of the actors and the penalty function\n    /// @param _transporter The address of the transporter\n    /// @param _receiver The address of the final receiver\n    /// @param _pf The address of the penalty function contract\n    constructor (address _transporter, address _receiver, PenaltyFunction _pf) public {\n        \n        producer = msg.sender;\n        transporter = _transporter;\n        receiver = _receiver;\n\n        state = State.READY;\n\n        // Fahreneit unit of measure, to avoid small numbers on Celsius\n        // https://eggsafety.org/faq/how-are-eggs-transported-safely-to-stores/\n        temperature_threshold = 45;\n\n        // Acceleration Suppose values multiplied by 1000, e.g. 5 m/s^2 = 5000\n        bump_threshold = 5000;\n\n        penalty_function = _pf;\n\n        emit ready();\n    }\n\n    /// @notice Change the state from READY to SHIPPING. Callable by the transporter\n    function ship() public is_allowed(transporter) payable {\n\n        uint amount = msg.value;\n\n        require(state == State.READY, \"Error, invalid initial state\");\n        require(amount == producer_price, \"Error, funds not match the expected amount\");\n\n        (bool success, ) = producer.call.value(amount)(\"\");\n        require(success == true, \"Error while paying the producer\");\n\n        state = State.SHIPPING;\n        emit shipping();\n    }\n\n    /// @notice Change the state from SHIPPING to ACCEPTED if the minimal price is not met; REFUSED otherwise. Callable by the receiver\n    function complete() public is_allowed(receiver) payable {\n\n        uint amount = msg.value;\n\n        require(state == State.SHIPPING, \"Error, invalid initial state\");\n        require(amount == transporter_price, \"Error, funds not match the expected amount\");\n\n        uint penalty = penalty_function.compute_penalty(samples_temperature, samples_bump, temperature_threshold, bump_threshold);\n\n        if((transporter_price < penalty) || (transporter_price - penalty) < minimal_price) {\n            // The penalty overcomes the difference between initial and minimal price\n\n            state = State.REFUSED;            \n            emit refused(penalty);\n            selfdestruct(msg.sender);\n        }\n        else {\n            // Accept the box and pay the transporter\n            \n            uint to_pay = transporter_price - penalty;\n            (bool success, ) = transporter.call.value(to_pay)(\"\");\n            require(success == true, \"Error while paying the transporter\");\n\n            state = State.RECEIVED;\n            emit received(to_pay);\n            selfdestruct(msg.sender);\n        }\n    }\n\n    /// @notice Push sensed data samples to the contract. Only the transporter can push such data\n    /// @param _temp An array of temperature data\n    /// @param _bumps An array of bump data\n    function push_data(uint[] memory _temp, uint[] memory _bumps) public is_allowed(transporter) {\n\n        require(_temp.length == _bumps.length, \"Input arrays should have same length\");\n\n        uint l = _temp.length;\n\n        for (uint i=0; i<l; i++) {\n            samples_temperature.push(_temp[i]);\n            samples_bump.push(_bumps[i]);\n        }\n    }\n}",
  "sourcePath": "/Users/gianmarcosanti/Library/Mobile Documents/com~apple~CloudDocs/UNIPI/P2PBC/P2P Final Term/code/contracts/Box.sol",
  "compiler": {
    "name": "solc",
    "version": "0.5.16+commit.9c3226ce.Emscripten.clang"
  },
  "schemaVersion": "3.2.0",
  "updatedAt": "2020-06-05T16:41:15.437Z",
  "networkType": "ethereum",
  "devdoc": {
    "methods": {
      "constructor": {
        "params": {
          "_pf": "The address of the penalty function contract",
          "_receiver": "The address of the final receiver",
          "_transporter": "The address of the transporter"
        }
      },
      "push_data(uint256[],uint256[])": {
        "params": {
          "_bumps": "An array of bump data",
          "_temp": "An array of temperature data"
        }
      }
    }
  },
  "userdoc": {
    "methods": {
      "complete()": {
        "notice": "Change the state from SHIPPING to ACCEPTED if the minimal price is not met; REFUSED otherwise. Callable by the receiver"
      },
      "constructor": "Constructor. Stores the addresses of the actors and the penalty function",
      "push_data(uint256[],uint256[])": {
        "notice": "Push sensed data samples to the contract. Only the transporter can push such data"
      },
      "ship()": {
        "notice": "Change the state from READY to SHIPPING. Callable by the transporter"
      }
    },
    "notice": "This contract describes the status of a box of eggs.  It tracks a series of data sensed during its shipment of the box. The box has a state that can be modified by different callers. If the sensed data are bad, then a PenaltyFunction contracts computes a penalty value and it will be applied to the box. A reference to a PenaltyFunction contract is given as constructor argument. "
  }
}