{
  "contractName": "IncreasingPenalty",
  "abi": [
    {
      "constant": true,
      "inputs": [],
      "name": "bump_penalty",
      "outputs": [
        {
          "internalType": "uint256",
          "name": "",
          "type": "uint256"
        }
      ],
      "payable": false,
      "stateMutability": "view",
      "type": "function"
    },
    {
      "constant": true,
      "inputs": [],
      "name": "temperature_penalty",
      "outputs": [
        {
          "internalType": "uint256",
          "name": "",
          "type": "uint256"
        }
      ],
      "payable": false,
      "stateMutability": "view",
      "type": "function"
    },
    {
      "constant": true,
      "inputs": [
        {
          "internalType": "uint256[]",
          "name": "_temperature",
          "type": "uint256[]"
        },
        {
          "internalType": "uint256[]",
          "name": "_bump",
          "type": "uint256[]"
        },
        {
          "internalType": "uint256",
          "name": "temperature_threshold",
          "type": "uint256"
        },
        {
          "internalType": "uint256",
          "name": "bump_threshold",
          "type": "uint256"
        }
      ],
      "name": "compute_penalty",
      "outputs": [
        {
          "internalType": "uint256",
          "name": "",
          "type": "uint256"
        }
      ],
      "payable": false,
      "stateMutability": "view",
      "type": "function"
    }
  ],
  "bytecode": "0x60806040526611c37937e0800060005566071afd498d000060015534801561002657600080fd5b5061025e806100366000396000f3fe608060405234801561001057600080fd5b50600436106100415760003560e01c80632aea98131461004657806334087e4c146100645780634dfc1ead1461015a575b600080fd5b61004e610178565b6040518082815260200191505060405180910390f35b6101446004803603608081101561007a57600080fd5b810190808035906020019064010000000081111561009757600080fd5b8201836020820111156100a957600080fd5b803590602001918460208302840111640100000000831117156100cb57600080fd5b9091929391929390803590602001906401000000008111156100ec57600080fd5b8201836020820111156100fe57600080fd5b8035906020019184602083028401116401000000008311171561012057600080fd5b9091929391929390803590602001909291908035906020019092919050505061017e565b6040518082815260200191505060405180910390f35b610162610223565b6040518082815260200191505060405180910390f35b60015481565b600080878790509050600080905060008090506000809050600080905060008090505b8581101561020e57888d8d838181106101b657fe5b9050602002013511156101d55760005483028501945082806001019350505b878b8b838181106101e257fe5b9050602002013511156102015760015482028401935081806001019250505b80806001019150506101a1565b50828401955050505050509695505050505050565b6000548156fea265627a7a7231582090e0786b22fdc3f330435be652164b69b0c13d9afbd3f332ec6dc7f8b696c4b064736f6c63430005100032",
  "source": "pragma solidity 0.5.16;\n\n/// @notice A contract interface to compute the penalty given a set of sensed data\ncontract PenaltyFunction {\n\n    // Penalties, in Ether, for each un-satisfied condition \n    uint public temperature_penalty = 5000000000000000; // 0.005 ether\n    uint public bump_penalty = 2000000000000000; // 0.002 ether\n\n    /// @notice Function signature to compute the penalty given a set of sensed data\n    /// @param _temperature The array of temperature data\n    /// @param _bump The array of bumps data\n    /// @param temperature_threshold The threshold value to penalize a temperature data \n    /// @param bump_threshold The threshold value to penalize a bump data \n    function compute_penalty(uint[] calldata _temperature,\n                            uint[] calldata _bump,\n                            uint temperature_threshold,\n                            uint bump_threshold) external view returns(uint);\n}\n\n\n/// @notice This penalty contract computes the penalty by multiplying the penalty of a data with its occurence and summing them up\ncontract SimplePenalty is PenaltyFunction {\n\n    function compute_penalty(uint[] calldata _temperature,\n                            uint[] calldata _bump,\n                            uint temperature_threshold,\n                            uint bump_threshold) external view  returns(uint) {\n\n        uint l = _temperature.length;\n        uint tmp_penalty_count = 0;\n        uint bmp_penalty_count = 0;\n\n        for(uint i=0; i<l; i++) {\n\n            if(_temperature[i] > temperature_threshold)\n                tmp_penalty_count++;\n\n            if(_bump[i] > bump_threshold)\n                bmp_penalty_count++;                \n        }\n\n        uint penalty = bmp_penalty_count*bump_penalty + tmp_penalty_count*temperature_penalty;\n        \n        return penalty;\n    }\n}\n\n\n/// @notice This penalty contract computes the penalty by assigning higher weight to values overcoming the threshold with higher index. The first occurrence does not increase the penalty\ncontract IncreasingPenalty is PenaltyFunction {\n    \n    function compute_penalty(uint[] calldata _temperature,\n                            uint[] calldata _bump,\n                            uint temperature_threshold,\n                            uint bump_threshold) external view returns(uint) {\n    \n        uint l = _temperature.length;\n        uint tmp_penalty = 0;\n        uint bmp_penalty = 0;\n        uint tmp_penalty_count = 0;\n        uint bmp_penalty_count = 0;\n\n        for(uint i=0; i<l; i++) {\n\n            if(_temperature[i] > temperature_threshold) {\n\n                tmp_penalty += tmp_penalty_count*temperature_penalty;\n                tmp_penalty_count++;\n            }\n\n            if(_bump[i] > bump_threshold) {\n\n                bmp_penalty += bmp_penalty_count*bump_penalty;\n                bmp_penalty_count++;                \n            }\n        }\n\n        return tmp_penalty + bmp_penalty;        \n    }\n}",
  "sourcePath": "/Users/gianmarcosanti/Library/Mobile Documents/com~apple~CloudDocs/UNIPI/P2PBC/P2P Final Term/code/contracts/PenaltyFunction.sol",
  "compiler": {
    "name": "solc",
    "version": "0.5.16+commit.9c3226ce.Emscripten.clang"
  },
  "schemaVersion": "3.2.0",
  "updatedAt": "2020-06-05T16:41:15.446Z",
  "networkType": "ethereum",
  "devdoc": {
    "methods": {}
  },
  "userdoc": {
    "methods": {},
    "notice": "This penalty contract computes the penalty by assigning higher weight to values overcoming the threshold with higher index. The first occurrence does not increase the penalty"
  }
}